:020000040800F2
:10000000005000207D2C0008ED020008EF020008DF
:10001000F1020008F3020008F502000800000000E9
:10002000000000000000000000000000212A00087D
:10003000F702000800000000C12A0008F9020008C9
:10004000C52C0008C52C0008C52C0008C52C0008CC
:10005000C52C0008C52C0008C52C00080F0300089B
:1000600019030008230300082D030008C52C00080D
:10007000C52C0008C52C0008C52C0008C52C00089C
:10008000C52C0008C52C0008C52C0008C52C00088C
:10009000C52C0008C52C0008C52C00083703000833
:1000A000C52C0008C52C0008C52C0008C52C00086C
:1000B000C52C0008C52C0008C52C0008C52C00085C
:1000C000C52C0008C52C0008C52C0008C52C00084C
:1000D000C52C0008C52C0008C52C0008C52C00083C
:1000E000C52C0008C52C0008C52C00080000000025
:1000F0000000000000000000000000000000000000
:0C01000000000000000000005FF808F1A3
:1001100010B5054C237833B9044B13B10448AFF341
:1001200000800123237010BD10000020000000009B
:100130003C2D000808B5034B1BB103490348AFF33E
:10014000008008BD00000000140000203C2D0008C5
:1001500010B586B0002405941E4B9A6942F0040243
:100160009A619B6903F004030193019B7E23029330
:10017000194B0393049402A9184800F09BFD2246F2
:100180000521072000F0C6FE072000F0F7FE2246FA
:100190000521082000F0BEFE082000F0EFFE2246F8
:1001A0000521092000F0B6FE092000F0E7FE2246F6
:1001B00005210A2000F0AEFE0A2000F0DFFE2246F4
:1001C0000521172000F0A6FE172000F0D7FE06B08C
:1001D00010BD00BF001002400000211000080140C7
:1001E00008B5012002F09CFAFBE7704772B6FEE703
:1001F00008B50B480B4B036010234360002383605A
:10020000C36003614361037643768376C3760377E5
:10021000437700F03BF900B908BDFFF7E7FF00BFE7
:100220003C1900200064004008B50A480A4B0360EE
:100230004FF4E133436000238360C36003610C2209
:1002400042618361C36100F005FF00B908BDFFF79B
:10025000CDFF00BF641900200038014000B591B007
:100260002422002107A802F061FD002301930293DC
:100270000393049305930223069301230A93102307
:100280000B9306A800F008FA68B90F230193002128
:10029000029103910491059101A800F02FFC20B96F
:1002A00011B05DF804FBFFF7A1FFFFF79FFF00000F
:1002B00008B500F0B7F9FFF7D1FFFFF749FFFFF7E7
:1002C00097FFFFF7B1FF02F09FF9054A00210548AB
:1002D00002F0C8F9044B186002F0A8F9FEE700BF6D
:1002E000602D0008E101000838190020FEE7FEE754
:1002F000FEE7FEE7FEE7704708B500F0A5F901F05C
:1003000001FF012800D108BD02F0FCFBFBE708B5A6
:10031000022000F0DFFD08BD08B5042000F0DAFD82
:1003200008BD08B5082000F0D5FD08BD08B51020AF
:1003300000F0D0FD08BD08B5202000F0CBFD402026
:1003400000F0C8FD08BD000000B583B0114B9A69EC
:1003500042F001029A619A6902F001020092009A49
:10036000DA6942F08052DA61DB6903F0805301936D
:10037000019B00220F216FF0010000F0CBFD064A27
:10038000536823F0E06343F08063536003B05DF88B
:1003900004FB00BF001002400000014010B586B011
:1003A000002302930393049305930268174B9A4228
:1003B00001D006B010BD03F5D633DA6942F0007201
:1003C000DA61DA6902F000720092009A9A6942F0EA
:1003D00004029A619B6903F004030193019B4FF4AB
:1003E00000630293002303930493094C02A920465F
:1003F00000F060FC4FF48053029302230393032325
:10040000059302A9204600F055FCD2E700640040A5
:100410000008014010B586B00023029303930493B3
:1004200005930268174B9A4201D006B010BD03F540
:1004300058439A6942F480429A619A6902F4804270
:100440000092009A9A6942F004029A619B6903F053
:1004500004030193019B4FF400730293022303935F
:1004600003230593084C02A9204600F023FC4FF417
:100470008063029300230393049302A9204600F0B3
:1004800019FCD2E70038014000080140002800F0C4
:10049000A18038B5044690F82030D3B122681368A3
:1004A00043F00103136000F0DBF8054623685A6847
:1004B00012F0010F10D100F0D3F8401B0A28F5D933
:1004C000636A43F400336362052384F8203001201B
:1004D00038BDFFF763FFE1E71A6822F002021A60F5
:1004E00000F0BEF8054623685A6812F0020F0DD0DE
:1004F00000F0B6F8401B0A28F5D9636A43F40033CC
:100500006362052384F820300120E1E7227E012A7E
:100510003DD01A6822F080021A60637E012B3BD026
:100520002268136823F040031360A37E012B39D0A7
:100530002268136823F020031360E37E012B37D079
:100540002268136843F010031360237F012B35D01A
:100550002268136823F008031360637F012B33D0F4
:100560002268136823F004031360A368E26813434E
:1005700022691343626913436268013A2168134395
:10058000CB6100206062012384F82030A0E71A6864
:1005900042F080021A60C0E72268136843F040030B
:1005A0001360C2E72268136843F020031360C4E7B6
:1005B0002268136823F010031360C6E722681368EB
:1005C00043F008031360C8E72268136843F004038C
:1005D0001360CAE70120704710B504460E4B187827
:1005E0004FF47A73B3FBF0F30C4A1068B0FBF3F0EE
:1005F00000F0D2FC68B90F2C01D901200AE00022DA
:1006000021464FF0FF3000F085FC054B1C600020B8
:1006100000E0012010BD00BF000000200800002005
:100620000400002008B5074A136843F01003136064
:10063000032000F05DFC0F20FFF7CEFFFFF784FEE4
:10064000002008BD00200240034A1168034B1B78BC
:100650000B441360704700BFAC190020000000205D
:10066000014B1868704700BFAC19002082B0084BDE
:100670001B68084AA2FB03235B0A00FB03F30193F8
:1006800000BF019B5A1E0192002BF9D102B07047A6
:1006900008000020D34D6210002800F0F18170B5F1
:1006A00082B00446036813F0010F2CD0AA4B5B689C
:1006B00003F00C03042B1DD0A74B5B6803F00C0365
:1006C000082B12D06368B3F5803F41D0002B55D181
:1006D00003F1804303F504331A6822F480321A6070
:1006E0001A6822F480221A6037E09B4B5B6813F48F
:1006F000803FE7D0984B1B6813F4003F03D063683A
:10070000002B00F0BF81236813F0020F75D0924BCD
:100710005B6813F00C0F5FD08F4B5B6803F00C032A
:10072000082B54D02369002B00F089808B4B0122C9
:100730001A60FFF795FF0546874B1B6813F0020F01
:1007400074D1FFF78DFF401B0228F5D903209EE1ED
:10075000814A136843F480331360636843B3FFF73F
:100760007FFF05467C4B1B6813F4003FCBD1FFF79E
:1007700077FF401B6428F5D9032088E1B3F5A02F4B
:1007800009D0754B1A6822F480321A601A6822F474
:1007900080221A60E1E703F18043A3F53C331A6835
:1007A00042F480221A601A6842F480321A60D4E758
:1007B000FFF756FF0546684B1B6813F4003FA2D0B5
:1007C000FFF74EFF401B6428F5D903205FE1624B21
:1007D0005B6813F4803FA5D15F4B1B6813F0020FD9
:1007E00003D02369012B40F04F815B4A136823F04B
:1007F000F803616943EAC1031360236813F0080F2B
:1008000032D0A369002B45D0554B01221A60FFF767
:1008100027FF0546504B5B6A13F0020F21D1FFF70B
:100820001FFF401B0228F5D9032030E14A4A136814
:1008300023F0F803616943EAC1031360DDE7474B26
:1008400000221A60FFF70CFF0546434B1B6813F0AC
:10085000020FD2D0FFF704FF401B0228F5D9032076
:1008600015E10120FFF702FF236813F0040F00F0E9
:100870009780394BDB6913F0805F1DD1364BDA6905
:1008800042F08052DA61DB6903F080530193019BEF
:10089000012512E0324B00221A60FFF7E1FE054607
:1008A0002D4B5B6A13F0020FDED0FFF7D9FE401B21
:1008B0000228F5D90320EAE000252A4B1B6813F42F
:1008C000807F11D0E368012B22D0002B38D103F1B7
:1008D000804303F504331A6A22F001021A621A6A8D
:1008E00022F004021A6218E01E4A136843F480736F
:1008F0001360FFF7B5FE06461A4B1B6813F4807FA2
:10090000E0D1FFF7ADFE801B6428F5D90320BEE0DF
:10091000114A136A43F001031362E36873B3FFF7EC
:100920009FFE06460C4B1B6A13F0020F37D1FFF7F0
:1009300097FE801B41F288339842F3D90320A6E04A
:10094000052B11D0044B1A6A22F001021A621A6AAE
:1009500022F004021A62E0E7001002400000424266
:1009600080044242007000404D4B1A6A42F004027B
:100970001A621A6A42F001021A62CEE7FFF770FEAD
:100980000646474B1B6A13F0020F08D0FFF768FEBC
:10099000801B41F288339842F3D9032077E0E5B910
:1009A000E369002B72D03E4A526802F00C02082A1A
:1009B00056D0022B17D03B4B00221A60FFF750FE97
:1009C0000446374B1B6813F0007F47D0FFF748FE03
:1009D000001B0228F5D9032059E0314AD36923F0DE
:1009E0008053D361DCE72F4B00221A60FFF738FEFB
:1009F00005462B4B1B6813F0007F06D0FFF730FE37
:100A0000401B0228F5D9032041E0236AB3F5803F5B
:100A10001AD023494B6823F47413226A606A024394
:100A200013434B601F4B01221A60FFF719FE044667
:100A30001B4B1B6813F0007F0ED1FFF711FE001B4C
:100A40000228F5D9032022E0154A536823F4003325
:100A5000A1680B435360DCE7002018E0002016E09B
:100A6000012B16D00E4B5B6803F48031226A914251
:100A700011D103F47013626A93420ED1002006E094
:100A800001207047012002E0012000E0002002B0B8
:100A900070BD0120FBE70120F9E70120F7E700BF67
:100AA00000100240600042420F4B5B6803F00C02F2
:100AB000082A01D00D487047C3F383420C498A5C71
:100AC00013F4803F0BD0084B5B68C3F340430949E4
:100AD000CB5C064800FB02F0B0FBF3F07047064821
:100AE00000FB02F0704700BF0010024000127A00C5
:100AF000842D0008942D000800093D00002800F016
:100B0000A08070B50D460446524B1B6803F00703E6
:100B10008B420BD24F4A136823F007030B43136039
:100B2000136803F007038B4240F08D80236813F0B5
:100B3000020F17D013F0040F04D0474A536843F450
:100B4000E0635360236813F0080F04D0424A5368EF
:100B500043F460535360404A536823F0F003A168A4
:100B60000B435360236813F0010F31D06368012BEE
:100B700020D0022B25D0384A126812F0020F64D020
:100B800035494A6822F0030213434B60FFF768FDC2
:100B90000646314B5B6803F00C036268B3EB820FCF
:100BA00016D0FFF75DFD801B41F288339842F0D9E3
:100BB000032045E0284A126812F4003FE0D10120EA
:100BC0003EE0254A126812F0007FD9D1012037E0BB
:100BD000204B1B6803F00703AB420AD91D4A136878
:100BE00023F007032B431360136803F00703AB42A2
:100BF0002DD1236813F0040F06D0174A536823F44D
:100C0000E063E1680B435360236813F0080F07D0DB
:100C1000114A536823F46053216943EAC1035360C6
:100C2000FFF742FF0C4B5B68C3F303130B4AD35C23
:100C3000D8400B4B18600B4B1868FFF7CDFC002019
:100C400070BD012070470120FAE70120F8E701207C
:100C5000F6E700BF0020024000100240982D000877
:100C60000800002004000020014B1868704700BFF6
:100C70000800002008B5FFF7F7FF044B5B68C3F3DB
:100C80000223034AD35CD84008BD00BF00100240D5
:100C9000A82D000808B5FFF7E7FF044B5B68C3F316
:100CA000C223034AD35CD84008BD00BF00100240F5
:100CB000A82D0008F0B482B000252C46A3E07F4F99
:100CC000BB4210D007D97E4FBB420CD007F580370E
:100CD000BB4208D013E0A7F58017BB4203D007F54D
:100CE0007027BB4207D18B68002B58D0012B51D005
:100CF0004261082503E0A7F58017BB42F3D0FF2E21
:100D00004FD88446FF2E4FD8A200DCF800300F27C2
:100D1000974023EA070305FA02F21343CCF80030A8
:100D20004B6813F0805F6DD0664B9A6942F0010208
:100D30009A619B6903F001030193019BA208971C30
:100D4000614B53F8273004F00307BF004FF00F0C3E
:100D50000CFA07FC23EA0C0C5C4B98422AD003F5F2
:100D60008063984200F08A8003F58063984200F027
:100D7000878003F5806398421AD004231BE0CD6876
:100D8000BDE7CD680435BAE7CD680835B7E7CD686B
:100D90000C35B4E702610825B1E70025AFE704256B
:100DA000ADE700F1040CADE7A4F108029200ACE756
:100DB000032300E00023BB4043EA0C030232424F0E
:100DC00047F822304B6813F4801F5BD0404A936889
:100DD000334393604B6813F4001F59D03C4AD368E7
:100DE0003343D3604B6813F4003F57D0384A5368FD
:100DF000334353604B6813F4803F55D0344A136833
:100E00001E43166001340B6833FA04F252D00122FB
:100E1000A24003EA020632EA0303F3D14B68122B25
:100E20003FF64DAF122B3FF66AAF01A757F823F0FC
:100E3000E70C00087F0D0008890D00089B0D0008D5
:100E4000FF0C0008FF0C0008FF0C0008FF0C000856
:100E5000FF0C0008FF0C0008FF0C0008FF0C000846
:100E6000FF0C0008FF0C0008FF0C0008FF0C000836
:100E7000FF0C0008830D00088F0D000801239AE77E
:100E8000022398E7124A936823EA06039360A1E7D6
:100E90000F4AD36823EA0603D360A3E70C4A5368DA
:100EA00023EA06035360A5E7094A136823EA060606
:100EB0001660A7E702B0F0BC704700BF0000221028
:100EC0000000311000100240000001400008014005
:100ED0000004014008B5054B5B69034200D108BD21
:100EE000024B5861FFF781F9F9E700BF00040140A8
:100EF000074AD36823F4E0631B041B0C000200F4D0
:100F0000E060034343F0BF6343F40033D3607047B2
:100F100000ED00E030B4174BDB68C3F30223C3F1EC
:100F20000704042C28BF04241D1D062D18D9033BDB
:100F30004FF0FF3505FA04F421EA0401994005FA5F
:100F400003F322EA0303194300280BDB0901C9B2AA
:100F500000F1604000F5614080F8001330BC70473C
:100F60000023E5E700F00F000901C9B2024B195454
:100F7000F4E700BF00ED00E014ED00E0002807DB1F
:100F800000F01F02400901239340024A42F820303A
:100F9000704700BF00E100E00138B0F1807F0AD265
:100FA000064B5860064AF02182F823100020986012
:100FB00007221A6070470120704700BF10E000E070
:100FC00000ED00E010B504460268136923F44053B5
:100FD000C1680B43136183680269134342691A4372
:100FE0000168CB6823F4B05323F00C031343CB60A8
:100FF0000268536923F4407381690B4353610268AB
:10100000124B9A421FD0FFF735FE00EB800303EB33
:10101000830362689200B3FBF2F20D48A0FB023139
:101020004909642303FB11231B013233A0FB032373
:101030005B0903F0F00202EB011203F00F032168D9
:1010400013448B6010BDFFF725FEDEE7003801403A
:101050001F85EB5160B310B5044690F8413013B3CF
:10106000242384F841302268D36823F40053D360EA
:101070002046FFF7A7FF2268136923F4904313610A
:101080002268536923F02A0353612268D36843F42A
:101090000053D36000206064202384F8413084F83A
:1010A0004230606310BD80F84030FFF7B3F9D7E7F6
:1010B00001207047704700F1080343604FF0FF3292
:1010C0008260C360036100230360704700230361F3
:1010D000704743684B609A688A6051609960086104
:1010E000036801330360704730B40D68B5F1FF3F0A
:1010F00011D000F108031C465B681A68AA42FAD9AD
:1011000063684B6099608C606160086103680133BB
:10111000036030BC70470469F2E703694168826884
:101120008A60416851605A68824206D0002202619A
:101130001A68013A1A601868704782685A60F5E7C1
:1011400010B5044601F07EFCA26BE36B9A4204D01A
:10115000002401F099FC204610BD0124F9E710B5E8
:10116000044601F06FFCA36B23B9012401F08CFC51
:10117000204610BD0024F9E770B504461546866B7D
:10118000026C5AB903681BB100200136A66370BD1A
:10119000806800F0C7FF0023A360F6E76DB94068E0
:1011A00001F0B6FD226C636813446360A268934249
:1011B00019D3236863602846E7E7C06801F0A8FDFB
:1011C000226C5142E3689B1AE3602268934202D288
:1011D000A3680B44E360022D01D00020D5E726B1BF
:1011E000013E0020D1E72846CFE70020CDE70346A7
:1011F000026C6AB110B50846D9681144D9609C6880
:10120000A14201D31968D960D96801F081FD10BDF0
:10121000704738B5054601F015FC95F8454064B2B5
:1012200003E000F069FF013C64B2002C08DD6B6A4A
:1012300033B105F1240000F0CBFE0028F3D0F0E735
:10124000FF2385F8453001F01FFC01F0FBFB95F80A
:10125000444064B203E000F04FFF013C64B2002C54
:1012600008DD2B6933B105F1100000F0B1FE002854
:10127000F3D0F0E7FF2385F8443001F005FC38BDDA
:1012800038B5E0B10D46044601F0DCFB2168E26BA5
:10129000236C03FB0210A0600020A0636160013A90
:1012A00002FB0313E360FF2384F8443084F84530E5
:1012B000EDB9236963B901F0E7FB012038BD4FF0B8
:1012C000500383F31188BFF36F8FBFF34F8FFEE797
:1012D00004F1100000F07CFE0028ECD0084B4FF029
:1012E00080521A60BFF34F8FBFF36F8FE3E704F1B3
:1012F0001000FFF7E0FE04F12400FFF7DCFEDAE760
:1013000004ED00E038B51D46049C0B4649B9246045
:10131000E063236401212046FFF7B2FF84F84C50BC
:1013200038BD2260F4E740B94FF0500383F31188D1
:10133000BFF36F8FBFF34F8FFEE730B585B01C460C
:10134000054653B192B189B94FF0500383F3118828
:10135000BFF36F8FBFF34F8FFEE74FF0500383F360
:101360001188BFF36F8FBFF34F8FFEE76AB1502331
:101370000393039B502B13D04FF0500383F311883A
:10138000BFF36F8FBFF34F8FFEE70029EFD04FF011
:10139000500383F31188BFF36F8FBFF34F8FFEE7C6
:1013A000039B012384F8463000949DF820302846A2
:1013B000FFF7A8FF204605B030BD0000F0B585B0AE
:1013C000019288B10E461D460446B1B1022D20D1CE
:1013D000E36B012B1DD04FF0500383F31188BFF353
:1013E0006F8FBFF34F8FFEE74FF0500383F31188E9
:1013F000BFF36F8FBFF34F8FFEE7036C002BE5D079
:101400004FF0500383F31188BFF36F8FBFF34F8FFB
:10141000FEE700F077FE074658B9019B002B44D049
:101420004FF0500383F31188BFF36F8FBFF34F8FDB
:10143000FEE7002739E02A4631462046FFF79CFEAA
:10144000626A6AB938B13C4B4FF080521A60BFF300
:101450004F8FBFF36F8F01F017FB012005B0F0BD78
:1014600004F1240000F0B4FD0028F4D0324B4FF01A
:1014700080521A60BFF34F8FBFF36F8FEBE701F01D
:1014800003FB0020EAE702A800F0E8FD012719E0CD
:10149000002384F8443021E0002384F8453023E021
:1014A0002046FFF7B6FE00F073FC01F0CBFAA26B0A
:1014B000E36B9A42BFD3022DBDD0019B002BDED03F
:1014C000002FE0D001F0E0FA00F0C6FB01F0BAFA1C
:1014D00094F844305BB2B3F1FF3FD9D094F8453073
:1014E0005BB2B3F1FF3FD7D001F0CEFA01A902A859
:1014F00000F0C0FDC8B92046FFF722FE0028CFD07B
:10150000019904F1100000F02FFD2046FFF781FE45
:1015100000F03EFC0028C8D1074B4FF080521A6003
:10152000BFF34F8FBFF36F8FBFE72046FFF771FE0A
:1015300000F02EFC002091E704ED00E02DE9F843D7
:1015400090B1894690461F460446B1B1022F20D182
:10155000E36B012B1DD04FF0500383F31188BFF3D1
:101560006F8FBFF34F8FFEE74FF0500383F3118867
:10157000BFF36F8FBFF34F8FFEE7036C002BE5D0F7
:101580004FF0500383F31188BFF36F8FBFF34F8F7A
:10159000FEE701F045FBEFF311864FF0500383F3B4
:1015A0001188BFF36F8FBFF34F8FA26BE36B9A422B
:1015B00006D3022F04D0002086F31188BDE8F883FB
:1015C00094F845506DB2A36B3A4649462046FFF762
:1015D000D3FDB5F1FF3F05D06B1C5BB284F84530FD
:1015E0000120E9E7636A0BB90120E5E704F1240073
:1015F00000F0EEFC30B1B8F1000F05D00120C8F8C2
:101600000000D9E70120D7E70120D5E7F0B585B084
:10161000019290B10E460446C1B100F073FD074639
:1016200000BB019B002B5CD04FF0500383F311886B
:10163000BFF36F8FBFF34F8FFEE74FF0500383F37D
:101640001188BFF36F8FBFF34F8FFEE7036C002B42
:10165000E3D04FF0500383F31188BFF36F8FBFF3D4
:101660004F8FFEE700273CE031462046FFF7BFFDE5
:10167000013DA563236923B901F006FA012005B0F5
:10168000F0BD04F1100000F0A3FC0028F4D0354BAD
:101690004FF080521A60BFF34F8FBFF36F8FEBE7AD
:1016A00001F0F2F90020EAE702A800F0D7FC0127D8
:1016B00021E0002384F8443029E0002384F84530F9
:1016C0002BE02046FFF7A5FD00F062FB09E0204675
:1016D000FFF79FFD00F05CFB2046FFF740FD002870
:1016E0003DD101F0AFF9A56B002DBDD1019B002BC1
:1016F000D6D0002FD8D001F0C7F900F0ADFA01F034
:10170000A1F994F844305BB2B3F1FF3FD1D094F823
:1017100045305BB2B3F1FF3FCFD001F0B5F901A97D
:1017200002A800F0A7FC0028D1D12046FFF717FD42
:101730000028C6D0019904F1240000F015FC2046D1
:10174000FFF767FD00F024FB0028CAD1054B4FF0DE
:1017500080521A60BFF34F8FBFF36F8FC1E7002035
:101760008DE700BF04ED00E0002300E00133072B0C
:101770000BD8064A52F83320002AF7D1034A42F820
:10178000331002EBC303586070477047B019002054
:1017900070B504460D46164601F054F994F84430ED
:1017A0005BB2B3F1FF3F0DD094F845305BB2B3F1BB
:1017B000FF3F0BD001F068F9A36B5BB12046FFF748
:1017C00028FD70BD002384F84430EDE7002384F841
:1017D0004530EFE73246294604F1240000F0DCFBF7
:1017E000ECE70000084B1B681B6823B9074B4FF060
:1017F000FF321A607047044B1B68DB68DB685A686D
:10180000024B1A60704700BF30000020D404002053
:101810002DE9F04780460D4617469946089EDDF8AB
:1018200024A00A9C9200A521206B01F07FFA236B73
:1018300007F18042013A03EB820727F0070785B3DF
:1018400000220F2A07D8A95CA31883F83410AB5CD8
:101850000BB10132F5E7002384F84330372E00D96D
:101860003726E662E66400252565201DFFF72EFC7D
:1018700004F11800FFF72AFC2461C6F13806A661BE
:101880006462656584F858504A464146384601F01E
:10189000B5F82060BAF1000F01D0CAF80040BDE8E9
:1018A000F087002384F83430D8E7000038B50024EE
:1018B000372C08D804EB840293000E481844FFF735
:1018C000FAFB0134F4E70C4D2846FFF7F4FB0B4C10
:1018D0002046FFF7F0FB0A48FFF7EDFB0948FFF74A
:1018E000EAFB0948FFF7E7FB084B1D60084B1C604B
:1018F00038BD00BF38000020AC040020C004002028
:10190000E00400200C050020F80400203000002036
:101910003400002010B5044601F094F8214A136801
:1019200001331360204B1B685BB1204B1B686BB904
:101930001D4B1B68DA6AE36A9A4207D81A4B1C608F
:1019400004E0194B1C601368012B27D0184A136858
:10195000013313606364E06A164B1B68984201D937
:10196000144B186000EB8000211D134B03EB80002B
:10197000FFF7AFFB01F088F80C4B1B686BB10A4B0B
:101980001B68DA6AE36A9A4207D20C4B4FF0805226
:101990001A60BFF34F8FBFF36F8F10BDFFF786FF45
:1019A000D4E700BF980400202C000020F40400209D
:1019B000A4040020A80400203800002004ED00E06A
:1019C00010B5044690F8593063B1012B11D0022BA9
:1019D0000ED04FF0500383F31188BFF36F8FBFF326
:1019E0004F8FFEE7006B00F09BFF204600F098FF52
:1019F00010BD00F095FFFBE70F4B1B68D3B110B58E
:101A000001F020F80D4BDB68DC68201DFFF785FB3B
:101A10000B4A1368013B1360074A1368013B1360CC
:101A200001F032F82046FFF7CBFF034B1B68002B79
:101A3000E6D110BD704700BF9C0400200C050020BB
:101A40009804002008B5FFF7D7FF064B1B68012B51
:101A5000F9D9054B4FF080521A60BFF34F8FBFF397
:101A60006F8FF0E73800002004ED00E070B5044609
:101A70000D46174B1E68174B18680430FFF74DFBD7
:101A8000B4F1FF3F0DD03444124B1B685C60A6429A
:101A900010D9114B18680F4B19680431FFF724FB5C
:101AA00070BD002DEFD00B4B196804310B48FFF7C8
:101AB00010FBF5E70A4B1868064B19680431FFF76D
:101AC00013FB084B1B68A342EAD9064B1C60E7E7EF
:101AD000200500202C00002034000020F804002005
:101AE00030000020D404002070B586B00B9D0C9C03
:101AF00075B1B4B15C260496049E5C2E1AD04FF0EA
:101B0000500383F31188BFF36F8FBFF34F8FFEE74E
:101B10004FF0500383F31188BFF36F8FBFF34F8FE4
:101B2000FEE74FF0500383F31188BFF36F8FBFF3CD
:101B30004F8FFEE7049E2563022584F85950002547
:101B40000395029405AD01950A9D0095FFF760FE8F
:101B50002046FFF7DFFE059806B070BD2DE9F04383
:101B600085B00746884614461E46900000F05AFE8F
:101B700000B381465C2000F055FE0546B0B1C0F8C8
:101B80003090E5B1002385F85930039302950D9B01
:101B900001930C9B00933346224641463846FFF79B
:101BA00037FE2846FFF7B6FE012005E0484600F064
:101BB000B7FEE6E74FF0FF3005B0BDE8F0834FF029
:101BC000FF30F9E710B588B000240594069407AA01
:101BD00006A905A800F0B2FD059B0293069B0193A0
:101BE00000942346079A17491748FFF77DFF48B12D
:101BF00000F04CFB0346012B06D0B3F1FF3F18D099
:101C000008B010BD0023F6E74FF0500383F31188AE
:101C1000BFF36F8FBFF34F8F0C4B4FF0FF321A6043
:101C20000B4B01221A600B4B00221A6000F09CFF44
:101C3000E6E74FF0500383F31188BFF36F8FBFF3D4
:101C40004F8FFEE7B02D0008451A0008D40400208D
:101C5000F404002020050020024A136801331360B9
:101C6000704700BFA0040020014B1868704700BFF8
:101C700020050020F8B53B4B1B68002B6AD13A4B7E
:101C80001D6801351D60C5B9384B1B681B6843B121
:101C90004FF0500383F31188BFF36F8FBFF34F8F63
:101CA000FEE7324A1168324B186810601960314AF9
:101CB000136801331360FFF795FD2F4B1B68AB4290
:101CC00011D900242D4B1B68DB6A03EB83039A00B8
:101CD0002B4B9B58012B00D901242A4B1B68002B4E
:101CE0003DD001243BE0002416E0234B4FF0FF32AF
:101CF0001A60E7E7204A1360E4E703EB83039A00E6
:101D000039461F481044FFF7E4F9F26A1B4B1B6881
:101D1000DB6A9A4200D30124144B1B681B68002B1A
:101D2000E3D0124B1B68DB68DE6873689D42E1D329
:101D3000371D3846FFF7F1F9B36A1BB106F11800F9
:101D4000FFF7EBF9F36A104A12689342D5D90E4AAD
:101D50001360D2E70D4A1368013313600024204654
:101D6000F8BD00BFA00400202005002030000020A6
:101D700034000020D8040020D40400202C000020CF
:101D80003800002024050020A8040020DC040020E6
:101D900038B5344B1B6843B94FF0500383F31188B7
:101DA000BFF36F8FBFF34F8FFEE700F04BFE2D4B5D
:101DB0001A68013A1A601B68002B4DD12A4B1B6828
:101DC0000BB9002449E00024284B1B681BB3274BA8
:101DD000DB68DC6804F11800FFF79FF9251D284631
:101DE000FFF79BF9E06A224B1B68984201D9204B10
:101DF000186000EB800029461E4B03EB8000FFF7C4
:101E000068F9E26A1C4B1B68DB6A9A42DCD31B4B05
:101E100001221A60D8E70CB1FFF7E4FC184B1C68EC
:101E200074B9164B1C68C4B1164B4FF080521A603F
:101E3000BFF34F8FBFF36F8F01240EE0013C07D03B
:101E4000FFF718FF0028F9D00C4B01221A60F5E7C4
:101E50000B4B00221A60E4E7002400F015FE204638
:101E600038BD00BFA004002098040020E00400203A
:101E7000A8040020380000202C00002024050020A9
:101E8000DC04002004ED00E010B5A8B104460F4BBF
:101E90001B6843B14FF0500383F31188BFF36F8F7A
:101EA000BFF34F8FFEE7FFF7D7FE00212046FFF775
:101EB000DDFDFFF76DFF38B9054B4FF080521A601A
:101EC000BFF34F8FBFF36F8F10BD00BFA004002082
:101ED00004ED00E01F4B1B681BB11F4B01221A6071
:101EE00070471D4B00221A601C4B1B6803EB8301DB
:101EF0008A001B498A585AB90BB1013BF6E74FF0EB
:101F0000500383F31188BFF36F8FBFF34F8FFEE74A
:101F100010B403EB830082000A44506840685060AC
:101F200003EB8304A20014460832114488420CD00B
:101F300003EB830291000A4A0A445268D168094AB5
:101F40001160064A136010BC70474068044A22447E
:101F50005060EDE7A004002024050020A804002024
:101F6000380000202C00002058B110B50C46094B59
:101F700019681831FFF7B8F801212046FFF776FD00
:101F800010BD4FF0500383F31188BFF36F8FBFF381
:101F90004F8FFEE72C00002038B570B10C46154677
:101FA0000A4B19681831FFF794F80DB14FF0FF3460
:101FB00029462046FFF75AFD38BD4FF0500383F302
:101FC0001188BFF36F8FBFF34F8FFEE72C00002007
:101FD00038B5C368DC6824B304F118052846FFF758
:101FE0009CF8184B1B682BBB251D2846FFF795F85E
:101FF000E06A154B1B68984201D9134B186000EB3F
:1020000080002946114B03EB8000FFF762F8E26A7B
:102010000F4B1B68DB6A9A4211D901200D4B1860E7
:102020000EE04FF0500383F31188BFF36F8FBFF3BF
:102030004F8FFEE729460848FFF74BF8E7E70020F7
:1020400038BD00BFA0040020A804002038000020F4
:102050002C00002024050020E0040020034B1B6816
:102060000360034B1B684360704700BFD804002027
:1020700020050020F8B5C8B10C460546F9B100F0BE
:10208000E1FC1B4B19686B68C81A2268B2F1FF3F6C
:1020900026D02F68174E3668B74201D08B4224D91C
:1020A000824215D80023236001241AE04FF0500328
:1020B00083F31188BFF36F8FBFF34F8FFEE74FF0AD
:1020C000500383F31188BFF36F8FBFF34F8FFEE789
:1020D0005B1A134423602846FFF7C0FF002400E08A
:1020E000002400F0D1FC2046F8BD0124F9E700BF30
:1020F00020050020D8040020014B01221A607047FF
:1021000024050020054B1B6833B1054B1B680BB140
:10211000002070470220704701207047F40400201F
:10212000A004002000283BD038B504461E4B1B6895
:10213000834208D04FF0500383F31188BFF36F8FB1
:10214000BFF34F8FFEE7036D43B94FF0500383F3A6
:102150001188BFF36F8FBFF34F8FFEE7013B03651D
:10216000C16AC26C91421DD00BB1002038BD051D63
:102170002846FEF7D2FFE06CE062C0F13803A361AD
:102180000A4B1B68984201D9084B186000EB80008D
:102190002946074B03EB8000FEF79BFF0120E5E794
:1021A000002070470020E1E72C000020A804002058
:1021B00038000020064B1A6813682BB9012303600E
:1021C00023B9D368186870470023F8E700207047E8
:1021D0002805002008B54160006191420CD8D21A50
:1021E00083699A4201D3012008BD011D094B18687B
:1021F000FEF77AFF0020F7E79A4201D2994206D211
:10220000011D054B1868FEF76FFF0020ECE7012069
:10221000EAE700BF2C0500202805002030B583B078
:1022200000F010FC114B1B681BB100F02DFC03B03B
:1022300030BD0F4D2846FEF73EFF0E4C2046FEF700
:102240003AFF0D4B1D600D4B1C60002300930C4B9F
:102250000C4A10210A20FFF766F8044B186000288A
:10226000E3D00949FFF780FADFE700BF4C06002002
:10227000D0050020E4050020280500202C050020C2
:10228000FC05002030050020B82D000810B588B0EE
:10229000FFF7C4FF124B1B68CBB1002405940694D2
:1022A00007AA06A905A800F055FA059B0293069B0C
:1022B0000193022300932346079A0A490A48FFF72D
:1022C00013FC0A4A106010B1012008B010BD4FF095
:1022D000500383F31188BFF36F8FBFF34F8FFEE777
:1022E0004C060020C02D0008F125000850060020F3
:1022F000C0B110B584B014461A46034616480068AB
:1023000038B300910194029305291CDCFFF7FAFE13
:10231000022810D000231A4669460F480068FFF7CC
:102320004DF814E04FF0500383F31188BFF36F8F23
:10233000BFF34F8FFEE70023069A69460648006800
:10234000FFF73CF803E000236946FFF7F7F804B015
:1023500010BD0020FBE700BF4C06002070B582B026
:102360001B4B1B681A6862B3DB681E68DC68251D9E
:102370002846FEF7D2FE236A2046984794F8283074
:1023800013F0040FECD0A36933449E4207D263607C
:10239000246129460E4B1868FEF7A6FEE0E70021EF
:1023A00000910B4632462046FFF7A2FF0028D7D106
:1023B0004FF0500383F31188BFF36F8FBFF34F8F3C
:1023C000FEE7044A106802490860136002B070BD5D
:1023D000280500202C05002038B50546FFF744FCF1
:1023E0000446074B1B68834205D800232B60044B2F
:1023F0001C60204638BDFFF7B1FF01232B60F6E7D4
:10240000F805002070B582B005460E46174B1B68D4
:10241000DB68DC68201DFEF780FE94F8283013F09E
:10242000040F08D123F0010384F82830236A2046E2
:10243000984702B070BDA1692B4632462944204618
:10244000FFF7C8FE0028F1D0002100910B462A4674
:102450002046FFF74DFF0028E8D14FF0500383F3EB
:102460001188BFF36F8FBFF34F8FFEE72805002061
:1024700070B582B006460C46FFF7EEFB01A8FFF7E9
:10248000ABFF019B23BB05460CB9B04217D224B168
:10249000114A12681268CAB901242246711B0F4BF7
:1024A0001868FFF775F9FFF773FC98B90C4B4FF0FC
:1024B00080521A60BFF34F8FBFF36F8F0AE0FFF7B0
:1024C00067FC29463046FFF79DFF03E01C46E4E722
:1024D000FFF75EFC02B070BD2C0500204C0600200A
:1024E00004ED00E010B588B006E007990698059B5A
:1024F0009847049B002B0BDA002204A93B4B186879
:10250000FFF784F800286FD0049B002BF1DAECE78A
:10251000069C636913B1201DFEF7FFFD03A8FFF7BA
:102520005BFF049B092BE7D8DFE803F005050530C6
:1025300037500505303794F8283043F0010384F80C
:102540002830059BA169024619442046FFF742FE48
:102550000028D1D0236A2046984794F8283013F0F9
:10256000040FC9D0A269002100910B4605980244CE
:102570002046FFF7BDFE0028BED14FF0500383F385
:102580001188BFF36F8FBFF34F8FFEE794F82830A9
:1025900023F0010384F82830AEE794F8283043F0A4
:1025A000010384F828300599A16131B10346024640
:1025B00001442046FFF70EFE9EE74FF0500383F3E1
:1025C0001188BFF36F8FBFF34F8FFEE794F8283069
:1025D00013F0020F04D023F0010384F828308BE7B6
:1025E000204600F09DF987E708B010BD4C0600209A
:1025F00000B583B001A8FFF7DDFD0199FFF738FFB3
:10260000FFF770FFF6E70000EFF305832BB9064BE9
:10261000186828B901221A6070476FF005007047EA
:102620004FF0FF30704700BFB0080020EFF3058384
:1026300073B90A4B1B68012B0DD110B50024084B50
:10264000DC77064B02221A60FFF7BCFA204610BD69
:102650006FF0050070474FF0FF307047B008002062
:1026600000ED00E0F0B587B000240594EFF3058499
:1026700074BB68B322B31568936903B918235C1E51
:10268000372C49D8546814F0010F47D156696EB100
:102690004FEA960C94682CB1D7685B2F02D9176962
:1026A00007B1C6B92CB14FF0FF340EE04FF0800CEB
:1026B000F0E7D4688CB9146994B14FF0FF3404E0AA
:1026C0001546002418234FF0800C012C0AD0ACB121
:1026D000059807B0F0BD0124F7E74FF0FF34F4E7A9
:1026E0000024F2E7146992680292019400930B4669
:1026F00062462946FFF7F8F90590E9E705AA019235
:1027000000930B461FFA8CF22946FFF727FA01289F
:10271000DED000230593DBE70020DAE70020D8E7CE
:1027200008B5EFF3058333B908B9002008BDFFF7FA
:10273000ABFB0020FAE76FF00500F7E7034B0360FF
:10274000034B0B6080231360704700BF54080020C8
:1027500054060020034B0360034B0B604FF480735F
:1027600013607047B40C0020B4080020124A12F025
:10277000070F1ED0D11D21F00701C1F5406313449E
:102780000A460E480260002141601344083B23F0D2
:1027900007030B48036059601960991A5160136070
:1027A000084B1960084B1960084B4FF000421A6043
:1027B00070474FF44063E4E7140D0020281900200F
:1027C000100D00201C1900201819002014190020D9
:1027D00010B4124B1A461B688342FBD3516854183D
:1027E000844209D041684418A3420AD00360904251
:1027F00000D0106010BC7047406801445160104622
:10280000F0E7074C2468A34206D05B681944416096
:1028100013681B680360EAE70460E8E728190020F2
:10282000100D002070B50446FFF716FA364B1B68F2
:10283000A3B1364B1B681C424ED134B1083414F09E
:10284000070F02D024F007040834002C46D0304B88
:102850001B68A34251D32F4B1D6804E0FFF786FF8E
:10286000E7E72B4615466A68A24202D22A68002A88
:10287000F7D1254A1268AA4241D01E6808362A6854
:102880001A606B681B1B102B10D9281910F0070F4A
:1028900008D04FF0500383F31188BFF36F8FBFF35D
:1028A0004F8FFEE743606C60FFF792FF6A6818493C
:1028B0000B689B1A0B60184909688B4201D21649B4
:1028C0000B60124B1B6813436B6000232B60134A91
:1028D00013680133136002E0002600E00026FFF7D2
:1028E00057FA16F0070F0CD04FF0500383F31188FE
:1028F000BFF36F8FBFF34F8FFEE70026EFE7002691
:10290000EDE7304670BD00BF100D00201419002007
:1029100018190020281900201C1900202019002057
:10292000002834D038B50446A0F1080550F8043C1E
:10293000174A1268134208D14FF0500383F31188ED
:10294000BFF36F8FBFF34F8FFEE750F8081C41B104
:102950004FF0500383F31188BFF36F8FBFF34F8F96
:10296000FEE723EA020340F8043CFFF775F954F848
:10297000041C084A13680B4413602846FFF728FF1D
:10298000054A136801331360FFF702FA38BD704738
:1029900014190020181900202419002082B00023E7
:1029A00001930D4B1B68B3F1FF3F08D04FF050036C
:1029B00083F31188BFF36F8FBFF34F8FFEE74FF0A4
:1029C000500383F31188BFF36F8FBFF34F8F019BC9
:1029D000002BFCD002B070470C00002006480068B5
:1029E000006880F3088862B661B6BFF34F8FBFF30B
:1029F0006F8F00DF00BF000008ED00E04FF0807334
:102A000040F8043C21F0010140F8081C034B40F859
:102A10000C3C40F8202C4038704700BF9D2900082E
:102A2000074B19680868B0E8F00F80F30988BFF316
:102A30006F8F4FF0000080F311884EF00D0E70473D
:102A40002C0000204FF0500383F31188BFF36F8FE9
:102A5000BFF34F8F0A4A136801331360012B00D074
:102A60007047084B1B6813F0FF0FF9D04FF050036D
:102A700083F31188BFF36F8FBFF34F8FFEE700BF63
:102A80000C00002004ED00E0094B1B6843B94FF037
:102A9000500383F31188BFF36F8FBFF34F8FFEE7AF
:102AA000013B034A13600BB983F31188704700BFE1
:102AB0000C000020000000000000000000000000EA
:102AC000EFF30980BFF36F8F0D4B1A6820E9F00F09
:102AD00010602DE908404FF0500080F31188FFF797
:102AE000F9F94FF0000080F31188BDE8084019683B
:102AF0000868B0E8F00F80F30988BFF36F8F704764
:102B00002C00002008B54FF0500383F31188BFF369
:102B10006F8FBFF34F8FFFF7ADF818B1034B4FF036
:102B200080521A60002383F3118808BD04ED00E091
:102B3000084A0023136008490B60084B1B680849CA
:102B4000A1FB03139B09013B06490B60072313609C
:102B5000704700BF10E000E018E000E0080000202F
:102B6000D34D621014E000E010B582B0274B1A7804
:102B7000D2B20192FF221A701B78DBB28DF80330BB
:102B80009DF8033003F05003214A1370214B0722B4
:102B90001A609DF8033013F0800F0AD01D4A1368A5
:102BA000013B13609DF803305B00DBB28DF803300E
:102BB000EFE7184B1B68032B08D04FF0500383F34B
:102BC0001188BFF36F8FBFF34F8FFEE71B0203F433
:102BD000E063104A1360019BDBB20C4A13700E4B8A
:102BE0001A6842F470021A601A6842F070421A6061
:102BF000FFF79EFF0024094B1C60FFF7EFFEFFF775
:102C000069F9FFF7CBFE204602B010BD00E400E0FA
:102C1000301900203419002020ED00E00C000020C5
:102C2000EFF305830F2B0FD9104A9B5CDBB2104AE0
:102C300012789A4208D94FF0500383F31188BFF3FA
:102C40006F8FBFF34F8FFEE70A4B1B6803F4E063FF
:102C5000094A1268934208D94FF0500383F3118850
:102C6000BFF36F8FBFF34F8FFEE77047F0E300E0D5
:102C7000301900200CED00E034190020FEF71AFA9C
:102C80000B480C490C4A002302E0D458C4500433CA
:102C9000C4188C42F9D3094A094C002301E013609F
:102CA0000432A242FBD300F00FF8FDF701FB70479E
:102CB0000000002010000020D02D0008100000208F
:102CC000F0190020FEE7000070B500260C4D0D4CF9
:102CD000641BA410A64209D100F030F800260A4D6A
:102CE0000A4C641BA410A64205D170BD55F8043BE4
:102CF00098470136EEE755F8043B98470136F2E76E
:102D0000C82D0008C82D0008C82D0008CC2D0008CB
:102D10000A44914200F1FF3300D1704710B511F819
:102D2000014B914203F8014FF9D110BD0346024413
:102D3000934200D1704703F8011BF9E7F8B500BFD3
:102D4000F8BC08BC9E467047F8B500BFF8BC08BC8C
:042D50009E467047E4
:102D540064656661756C745461736B00542D00086E
:102D6400000000000000000000000000000000005F
:102D74000002000018000000000000000000000035
:102D840002030405060708090A0B0C0D0E0F1010A8
:102D94000102000000000000000000000102030422
:102DA40006070809000000000102030449444C45D9
:102DB40000000000546D725100000000546D722038
:042DC40053766300DF
:042DC80035010008C9
:042DCC0011010008E9
:102DD000010000001000000000127A00AAAAAAAAAE
:0400000508002C7D46
:00000001FF
